:020000040800F2
:1000000000000120C5030008B1030008B303000885
:10001000B5030008B7030008B9030008000000009A
:10002000000000000000000000000000BB0300080A
:10003000BD03000800000000BF030008C103000862
:10004000090400080904000809040008090400085C
:10005000090400080904000809040008090400084C
:10006000090400080904000809040008090400083C
:10007000090400080904000809040008090400082C
:10008000090400080904000809040008090400081C
:10009000090400080904000809040008090400080C
:1000A00009040008090400080904000809040008FC
:1000B00009040008090400080904000809040008EC
:1000C00009040008090400080904000809040008DC
:1000D00009040008090400080904000809040008CC
:1000E00009040008090400080904000809040008BC
:1000F00009040008090400080904000809040008AC
:10010000090400080904000809040008090400089B
:10011000090400080904000809040008090400088B
:10012000090400080904000809040008090400087B
:1001300000000000000000000000000000000000BF
:1001400000000000000000000000000000000000AF
:10015000000000000000000000000000000000009F
:10016000000000000000000000000000000000008F
:10017000000000000000000000000000000000007F
:10018000000000000000000000000000000000006F
:10019000000000000000000000000000000000005F
:1001A000000000000000000000000000000000004F
:1001B000000000000000000000000000000000003F
:1001C000000000000000000000000000000000002F
:1001D000000000000000000000000000000000001F
:0401E0005FF8E0F1F3
:1001E4000348044B834202D0034B03B118477047C2
:1001F4000000002000000020000000000548064B1D
:100204001B1AD90F01EBA301491002D0034B03B110
:100214001847704700000020000000200000000084
:1002240010B5064C237843B9FFF7DAFF044B13B13A
:100234000448AFF300800123237010BD00000020A8
:10024400000000000C04000808B5054B1BB105496B
:100254000548AFF30080BDE80840FFF7CFBF00BFFB
:1002640000000000040000200C040008374B82B09A
:100274001A6842F001021A605968354A0A405A6005
:100284001A6822F0847222F480321A601A6822F406
:1002940080221A605A6822F4FE025A604FF41F0248
:1002A4009A600022009201921A6842F480321A6025
:1002B4001A6802F400320192009A01320092019A03
:1002C4001AB9009AB2F5A06FF2D11A6812F400328A
:1002D40018BF01220192019A012A30D11D4A1168E6
:1002E40041F010011160116821F0070111601168DB
:1002F40041F0020111605A685A605A685A605A689B
:1003040042F480625A605A6822F47C125A605A6835
:1003140042F4E8125A601A6842F080721A601A684D
:100324009201FCD55A6822F003025A605A6842F0DE
:1003340002025A605A6802F00C02082AFAD14FF0FD
:100344000062054B9A6002B0704700BF0010024083
:100354000000FFF80020024000ED00E0054A936928
:1003640043F008039361A2F58232136843F030032B
:10037400136070470010024082B00190019B5A1E26
:100384000192002BFAD102B07047000008B5FFF7C4
:10039400E5FF04490448CB6883F00203CB60FFF710
:1003A400EBFFF8E7000C0140FFFF1F007047FEE77A
:1003B400FEE7FEE7FEE770477047704770470000AE
:1003C400002103E00A4B5B584350043109480A4BAF
:1003D40042189A42F6D3094A02E0002342F8043B49
:1003E400074B9A42F9D3FFF741FFFFF7CFFF70475E
:1003F4002C04000800000020000000200000002061
:100404001C000020FEE70000F8B500BFF8BC08BCE3
:100414009E467047F8B500BFF8BC08BC9E467047BE
:040424004D0200087D
:0404280025020008A1
:04000005080003C527
:00000001FF
